:020000040800F2
:1000000068060020890100082F04000893020008F8
:100010002D0400088F0200081D05000800000000E4
:100020000000000000000000000000003304000891
:1000300091020008000000003104000835040008A7
:10004000A3010008A3010008A3010008A301000800
:10005000A3010008A3010008A3010008A3010008F0
:10006000A3010008A3010008A3010008A3010008E0
:10007000A3010008A3010008A3010008A3010008D0
:10008000A3010008A3010008A3010008A3010008C0
:10009000A3010008A3010008A3010008A3010008B0
:1000A000A3010008A3010008A3010008A3010008A0
:1000B000A3010008A3010008A3010008A301000890
:1000C000A3010008A3010008A3010008A301000880
:1000D000A3010008A3010008A3010008A301000870
:1000E000A3010008A3010008A301000800F002F822
:1000F00000F03AF80AA090E8000C82448344AAF188
:100100000107DA4501D100F02FF8AFF2090EBAE885
:100110000F0013F0010F18BFFB1A43F0010318473B
:10012000B0040000D0040000103A24BF78C878C1A1
:10013000FAD8520724BF30C830C144BF04680C60ED
:10014000704700000023002400250026103A28BF35
:1001500078C1FBD8520728BF30C148BF0B60704739
:100160001FB51FBD10B510BD00F058F81146FFF7C0
:10017000F7FF00F0D5F900F076F803B4FFF7F2FFCF
:1001800003BC00F07DF8000009488047094800479B
:10019000FEE7FEE7FEE7FEE7FEE7FEE7FEE7FEE737
:1001A000FEE7FEE704480549054A064B7047000094
:1001B000D5040008ED000008680000206806002053
:1001C00068020020680200204FF0000200B51346CC
:1001D00094469646203922BFA0E80C50A0E80C5067
:1001E000B1F12001BFF4F7AF090728BFA0E80C5018
:1001F00048BF0CC05DF804EB890028BF40F8042B11
:1002000008BF704748BF20F8022B11F0804F18BF7D
:1002100000F8012B7047704770477047754600F033
:100220002BF8AE4605006946534620F00700854688
:1002300018B020B5FFF7B6FFBDE820404FF000062C
:100240004FF000074FF000084FF0000B21F00701BE
:10025000AC46ACE8C009ACE8C009ACE8C009ACE801
:10026000C0098D46704710B50446AFF300802046A4
:10027000BDE81040FFF781BF004870470400002030
:1002800001491820ABBEFEE7260002007047FEE7DA
:100290007047FEE7044908B58A6902438A618969A3
:1002A0000140009108BD000000100240F0B50A684E
:1002B000C2F30F2595FAA5F2B2FA82F369E00122A2
:1002C0009A402A4264D0082B03D240F201129A408D
:1002D00006E0A3F108024FF00114944044F080625C
:1002E00092FAA2F700EB1264B7FA87F74FEA870C8D
:1002F0000F27266807FA0CF7BE4392FAA2F7D1F847
:1003000004E0B7FA87F7BF000EFA07FE46EA0E06CA
:1003100026600E69C7684FEA122C9CFAACFCBCFA46
:100320008CFC27EA122706FA0CF63743C7604E68A2
:10033000012E01D0092E2BD192FAA2F7B7FA87F736
:100340004FEA870C032707FA0CF72668D1F808E074
:10035000BE4392FAA2F7B7FA87F7BF000EFA07FE7C
:1003600092FAA2FC46EA0E06BCFA8CFC4FEA8C0E0E
:100370004FF0040C26600CFA0EFC92FAA2F2B2FACC
:1003800082F2CF68920026EA0C0697403E43266030
:100390005B1C35FA03F292D10020F0BD4FF47A7164
:1003A000B0FBF1F14FF0E020491E41610021816175
:1003B0000521016170470000014908607047000095
:1003C0000000002008B54FF0E0210A690092421CAD
:1003D00000D0401C0A69D20300D5401E0028F9D184
:1003E00008BD000000B585B014216846FFF7ECFE9B
:1003F0001020FFF74FFF2020FFF74CFF0420FFF7EE
:1004000049FF094807494FF4005242610091012118
:10041000019103210291002103916946FFF746FFF4
:1004200005B000BD2000200400100140FEE7FEE7FB
:100430007047704770470000234810B5016821F0ED
:10044000070141F002010160016801F00701022982
:10045000FAD11E48016841F4803101600168C1F39E
:1004600040410029FAD0416821F47C1141F4E8119F
:100470004160016841F0807101600168C1F3406131
:100480000029FAD0416821F0F0014160416821F46F
:10049000E06141F480614160416821F46051416054
:1004A000416821F0030141F002014160416801F01F
:1004B0000C010829FAD1064C2046FFF76FFF2046B1
:1004C000BDE81040FFF778BF002002400010024056
:1004D00000A24A040D48016841F001010160416831
:1004E0000B4A1140416001680A4A114001600168ED
:1004F00021F480210160416821F4FE0141604FF444
:100500001F0181600449C003086070470010024069
:100510000000FFF8FFFFF6FE08ED00E0FEE7000038
:10052000254808B5816941F001018161816901F0C7
:1005300001010091C16941F08051C161C06900F0C1
:10054000805000901D4801684FF6FF0211401C4A80
:1005500041F44071114301600068C0F30220C0F112
:100560000702042A00D90422011D072901D2002014
:1005700000E0C01E01219140491E8140080111493F
:1005800081F8140D1048416821F0E0614160416834
:1005900041F000714160FFF74FFFFFF723FF0B4D64
:1005A0004FF400542C61C820FFF70CFF6C61C82089
:1005B000FFF708FFF6E70000001002400CED00E036
:1005C0000000FA050FE000E00000014000100140CB
:1005D000F0050008000000200400000028010008C9
:1005E000F40500080400002064060000440100082F
:0405F0000024F400EF
:04000005080000ED02
:00000001FF
