:020000040800F2
:100000006806002089010008D7060008930200084E
:10001000D50600088F020008C50700080000000090
:10002000000000000000000000000000DB060008E7
:100030009102000800000000D9060008DD06000853
:10004000A3010008A3010008A3010008A301000800
:10005000A3010008A3010008A3010008A3010008F0
:10006000A3010008A3010008A3010008A3010008E0
:10007000A3010008A3010008A3010008A3010008D0
:10008000A3010008A3010008A3010008A3010008C0
:10009000A3010008A3010008A3010008A3010008B0
:1000A000A3010008A3010008A3010008A3010008A0
:1000B000A3010008A3010008A3010008A301000890
:1000C000A3010008A3010008A3010008A301000880
:1000D000A3010008A3010008A3010008A301000870
:1000E000A3010008A3010008A301000800F002F822
:1000F00000F03AF80AA090E8000C82448344AAF188
:100100000107DA4501D100F02FF8AFF2090EBAE885
:100110000F0013F0010F18BFFB1A43F0010318473B
:1001200098070000B8070000103A24BF78C878C1CB
:10013000FAD8520724BF30C830C144BF04680C60ED
:10014000704700000023002400250026103A28BF35
:1001500078C1FBD8520728BF30C148BF0B60704739
:100160001FB51FBD10B510BD00F058F81146FFF7C0
:10017000F7FF00F029FB00F076F803B4FFF7F2FF79
:1001800003BC00F07DF8000009488047094800479B
:10019000FEE7FEE7FEE7FEE7FEE7FEE7FEE7FEE737
:1001A000FEE7FEE704480549054A064B7047000094
:1001B0007D070008ED0000086800002068060020A8
:1001C00068020020680200204FF0000200B51346CC
:1001D00094469646203922BFA0E80C50A0E80C5067
:1001E000B1F12001BFF4F7AF090728BFA0E80C5018
:1001F00048BF0CC05DF804EB890028BF40F8042B11
:1002000008BF704748BF20F8022B11F0804F18BF7D
:1002100000F8012B7047704770477047754600F033
:100220002BF8AE4605006946534620F00700854688
:1002300018B020B5FFF7B6FFBDE820404FF000062C
:100240004FF000074FF000084FF0000B21F00701BE
:10025000AC46ACE8C009ACE8C009ACE8C009ACE801
:10026000C0098D46704710B50446AFF300802046A4
:10027000BDE81040FFF781BF004870470400002030
:1002800001491820ABBEFEE7260002007047FEE7DA
:100290007047FEE7044908B58A6902438A618969A3
:1002A0000140009108BD000000100240F0B50A684E
:1002B000C2F30F2595FAA5F2B2FA82F369E00122A2
:1002C0009A402A4264D0082B03D240F201129A408D
:1002D00006E0A3F108024FF00114944044F080625C
:1002E00092FAA2F700EB1264B7FA87F74FEA870C8D
:1002F0000F27266807FA0CF7BE4392FAA2F7D1F847
:1003000004E0B7FA87F7BF000EFA07FE46EA0E06CA
:1003100026600E69C7684FEA122C9CFAACFCBCFA46
:100320008CFC27EA122706FA0CF63743C7604E68A2
:10033000012E01D0092E2BD192FAA2F7B7FA87F736
:100340004FEA870C032707FA0CF72668D1F808E074
:10035000BE4392FAA2F7B7FA87F7BF000EFA07FE7C
:1003600092FAA2FC46EA0E06BCFA8CFC4FEA8C0E0E
:100370004FF0040C26600CFA0EFC92FAA2F2B2FACC
:1003800082F2CF68920026EA0C0697403E43266030
:100390005B1C35FA03F292D10020F0BD4FF47A7164
:1003A000B0FBF1F14FF0E020491E41610021816175
:1003B0000521016170470000014908607047000095
:1003C00000000020F0B50268154B164C164D4FF09A
:1003D0008046984205D0B04203D0A04201D0A84246
:1003E00003D14F6822F070023A43984205D0B042E0
:1003F00003D0A04201D0A84203D1CC6822F44072BD
:10040000224302608A68C2620A888262984201D1ED
:10041000097C0163416941F0010141610020F0BDA7
:10042000002C01400004004000080040F0B5012508
:100430000023604C012908D0102933D0B1F5807F0A
:1004400064D0B1F5805F5FD190E0016A21F00101D5
:100450000162016A45688669176826F073063E43A3
:10046000176921F002013943576821F0010139432E
:10047000A04212D1546921F0080141EA8401946834
:1004800021F0040141EA840125F4807495692C432C
:10049000D56924F4007444EA450545608661D26854
:1004A00042632FE0016A21F010010162016A456890
:1004B0008669176826F4E64646EA0726176921F09A
:1004C000200141EA0711576821F0100141EA0711A4
:1004D000A04213D1546921F0800141EA841194684B
:1004E00021F0400141EA841125F48064956944EAD1
:1004F0008504D56924F4006444EAC5054560866135
:10050000D268826301621D462846F0BD016A21F46B
:1005100080710162016A4568C669176826F0730632
:100520003E43176921F4007141EA0721576821F41D
:10053000807141EA0721A04213D1546921F400617E
:1005400041EA8421946821F4806141EA842125F400
:100550008054956944EA0514D56924F4005444EAAA
:1005600045154560C661D268C263CBE7016A21F4D4
:1005700080510162056A4168C669176826F4E6463B
:1005800046EA0726176925F4005545EA07355768F6
:1005900025F4805545EA0735A04204D1946921F439
:1005A000804141EA84114160C661D16801640562FD
:1005B000A9E70000002C014008B54FF0E0210A69CE
:1005C0000092421C00D0401C0A69D20300D5401E94
:1005D0000028F9D108BD10B52020FFF75BFEBDE86B
:1005E00010400420FFF756BE2DE9F04194B01421CD
:1005F00009A8FFF7E9FD202101A8FFF7E5FD142177
:100600000EA8FFF7E1FD304FF86940F00100F861F6
:10061000F869002600F0010000904720ADF82400A2
:100620006320CDE90A60BC0409A920460C96FFF7B7
:10063000C9FE206820F080002060A06844F2070115
:100640008843A0602148057805F180451835286861
:10065000DFF87880082108F1070898F80020914019
:10066000084328606020CDE901060396049601AA9C
:10067000012120460596FFF7D9FE296898F8002049
:100680000420904081432960606820F07000606021
:10069000A06820F08000A060B86940F00400B86154
:1006A000B8690EA900F00400009040F201100E900D
:1006B00009200F900220CDE910060548FFF7F6FD4E
:1006C00014B0BDE8F081000000100240A808000846
:1006D00000080140FEE7FEE77047704770470000E2
:1006E000234810B5016821F0070141F002010160C3
:1006F000016801F007010229FAD11E48016841F49E
:10070000803101600168C1F340410029FAD041689D
:1007100021F47C1141F4E8114160016841F08071DD
:1007200001600168C1F340610029FAD0416821F0FD
:10073000F0014160416821F4E06141F48061416071
:10074000416821F460514160416821F0030141F0AA
:1007500002014160416801F00C010829FAD1064C00
:100760002046FFF71BFE2046BDE81040FFF724BEE1
:10077000002002400010024000A24A040D48016817
:1007800041F00101016041680B4A1140416001687C
:100790000A4A11400160016821F48021016041682A
:1007A00021F4FE0141604FF41F0181600449C00340
:1007B00008607047001002400000FFF8FFFFF6FEDF
:1007C00008ED00E0FEE70000324808B5816941F01D
:1007D00001018161816901F001010091C16941F06C
:1007E0008051C161C06900F0805000902A480168C2
:1007F0004FF6FF021140294A41F440711143016054
:100800000068C0F30220C0F10702042A00D90422C4
:10081000011D072901D2002000E0C01E01219140E6
:10082000491E814008011E4981F8140D1D48416888
:1008300021F0E0614160416841F000714160FFF7E3
:100840004FFFFFF7C8FEFFF7CFFE4FF08044606C0C
:1008500040F400406064206840F001002060206A9D
:1008600040F001002062002565630A20FFF7A4FE26
:100870006D1CADB2642DF7D95FF00005C5F16400C1
:1008800060630A20FFF798FE6D1CADB2642DF5D9A8
:10089000E9E70000001002400CED00E00000FA055E
:1008A0000FE000E00000014000000000040404002C
:1008B0000008000000080000D80800080000002020
:1008C0000400000028010008DC08000804000020E3
:0C08D00064060000440100080024F4004D
:04000005080000ED02
:00000001FF
